:03000000020C9D52
:0C0C9D00787FE4F6D8FD75811C020CE4A1
:100F0000020D000002140000021A00000218000086
:100F1000011100011700020A0000020F0000021276
:100F20000000011C01011600010C0101080101096A
:010F300000C0
:040F3200AF1BAE1A29
:100F3600EF1FAC0670011E4C600A7D0B7CBEDCFE0A
:040F4600DDFC80EC62
:010F4A002284
:080F4B00C39519FFE49518FE9F
:100F5300EF1FAC0670011E4C600500000080F122FB
:100D2900E4F5B2F5B1F5CAF5C9758901758C3C755B
:100D39008AB0D28CD2A9D28AD2AAD2B3D2AFE51CB8
:100D490060FCE4F516E51114B40800504E900D64EA
:100D590075F003A4C58325F0C58373020D7C020DCC
:100D690081020D86020D8B020D90020D95020D9ADE
:100D7900020D9F120DA980C6120E0A80C1120E6BB8
:100D890080BC120AD380B7120F6380B2120ECC80D6
:100D9900AD120BD380A8120F7780A3751101809E25
:03001300020F8257
:010F8200323C
:03000B000209D314
:1009D300C0E0C0F0C083C082C0D075D000C000C0EA
:1009E30001C002C003C004C005C006C007050BE573
:1009F3000B7002050A20B3170513E51370020512E5
:100A0300750801C3941EE51294004003750C012080
:100A1300B306E50C6401706EE50864017068F50CBB
:100A2300C3E513941EE51294004021750800751266
:100A3300007513007401951CF51C70058511178052
:100A4300038517117516017509018069C3E51394B0
:100A53001EE5129400502FE5139401E51294004013
:100A6300257508000511E50964017005851711F561
:100A730009751200751300750F00751000750A00D3
:100A8300750B00751601C3E50B9410E50A94274016
:100A930024750A00750B00E510450F7012E511145B
:100AA300F517120F7700000000758702851711757F
:100AB3000F00751001D007D006D005D004D003D0A5
:100AC30002D001D000D0D0D082D083D0F0D0E03299
:100DA900C2B07FF47E01120F36D2B0E5166401702D
:100DB90002804AC2B17FF47E01120F36D2B1E51624
:100DC900640170028037C2B27FF47E01120F36D2FD
:100DD900B2E516640170028024C2CC7FF47E011250
:100DE9000F36D2CCE516640170028011C2CD7FF4B2
:100DF9007E01120F36D2CDE51664017003120F770A
:010E090022C6
:100E0A00C2B07FC87E00120F36D2B0E516640170F8
:100E1A0002804AC2B17FC87E00120F36D2B1E516EF
:100E2A00640170028037C2B27FC87E00120F36D2C8
:100E3A00B2E516640170028024C2CC7FC87E00121B
:100E4A000F36D2CCE516640170028011C2CD7FC87C
:100E5A007E00120F36D2CDE51664017003120F77A9
:010E6A002265
:100E6B00C2B07F3C7E00120F36D2B0E51664017023
:100E7B0002804AC2B17F3C7E00120F36D2B1E5161A
:100E8B00640170028037C2B27F3C7E00120F36D2F3
:100E9B00B2E516640170028024C2CC7F3C7E001246
:100EAB000F36D2CCE516640170028011C2CD7F3CA7
:100EBB007E00120F36D2CDE51664017003120F7748
:010ECB002204
:100AD300751A00751BC8D3E51B940AE51A940040E8
:100AE3006CC2B0E51664017003020BAD120F32D273
:100AF300B0C2B1120F32E51664017003020BADD21E
:100B0300B1C2B2E51664017003020BAD120F32D20B
:100B1300B2C2CCE51664017003020BAD120F32D2E0
:100B2300CCC2CDE51664017003020BAD120F32D2B5
:100B3300CDAC1AAD1BE412090B7466FBFAF9783FCE
:100B43001208001209448E1A8F1B020AD9E5166493
:100B53000170028055751A00751B0AC3E51B94C802
:100B6300E51A94005069C2B0E51664017002803A38
:100B7300120F32D2B0C2B1E51664017002802B129B
:100B83000F32D2B1C2B2E51664017002801C120F9B
:100B930032D2B2C2CCE51664017002800D120F325C
:100BA300D2CCC2CDE51664017003020F77120F3267
:100BB300D2CDAC1AAD1BE412090B7BCD7ACC798C68
:100BC300783F1208001209448E1A8F1B020B5E2213
:100F6300C2B0C2B1C2B2C2CCC2CDE5166401700335
:040F7300120F7722C0
:100ECC00C2B0C2B1C2B2C2CCC2CDE51664017002CE
:100EDC0080177FC87E00120F36D2B0D2B1D2B2D2F8
:100EEC00CCD2CDE51664017003020F777FC87E006B
:040EFC00120F362279
:100BD300E50E450D7059F51AF51BC2B0C2B1C2B28C
:100BE300C2CCC2CDE51664017003020C6FAF19AE1F
:100BF30018120F53D2B0D2B1D2B2D2CCD2CDE516A5
:100C030064017002806674FB120F4B051BE51B70B9
:100C130002051AC39414E51A940040BE0519E51998
:100C23007002051864FA45187005F50D750E01E597
:100C330016640170028035E50E6401450D705AF5A6
:100C43001AF51BC2B0C2B1C2B2C2CCC2CDE51664A2
:100C53000170028017AF19AE18120F53D2B0D2B180
:100C6300D2B2D2CCD2CDE51664017003020F7774F1
:100C7300FA120F4B051BE51B7002051AC39414E50A
:100C83001A940040BEE519151970021518E5196488
:0A0C93000345187004F50DF50E225C
:0B0F7700D2B0D2B1D2B2D2CCD2CD2287
:10080000EC4D6011E8497017ED33EC3304600DE4F2
:10081000FCFFFEFD22E933E8330470F80209B01250
:10082000097B58046009E4CC248150062850090251
:1008300009BA2840030209B7C0E0EB4A7044B98006
:1008400006D0E0FB0209A6EF4E701CBD8008EBFF4E
:10085000EAFEE9FD80EBE98DF0A4FEE5F00208E98F
:10086000E9CDF9EAFEEBFFEF89F0A4FCE5F0CE89D3
:10087000F0A42EFFE435F0CD89F0A42DFEE435F090
:100880008067EF4E7005BD80D780C3EF8BF0A4ACBE
:10089000F0EE8BF0A42CFCE435F0F8EF8AF0A42CF9
:1008A000E5F038FCE433CB8DF0A42CFCE5F03BF80C
:1008B000EE8AF0A42CFCE5F038F8E433CF89F0A4FC
:1008C0002CFCE5F038CF3400CE89F0A42FFFE5F002
:1008D0003EFEE433C98DF0A42EFEE5F039CD8AF05A
:1008E000A42FFFE5F03EFEE43DFD33D0E0FB5007D2
:1008F0000BBB000F0209BAEC2CFCEF33FFEE33FE0A
:06090000ED33FD02099237
:1009060075F020800E75F010800575F0087D007E6C
:10091600007F003392D530D5031209C5EC33401061
:10092600EF33FFEE33FEED33FDEC33FCD5F0ED2275
:0E093600E5F0247EA2D513CC92E7CDCEFF22B1
:10094400EDD2E7CD33EC3392D524814006E4FFFEAB
:10095400FDFC22FCE4CFCECDCC24E0501174FF800A
:10096400EDC3CC13CCCD13CDCE13CECF13CF0470A7
:07097400F030D5DE0209C5D9
:10097B00E9D2E7C933E833F892D5EDD2E7CD33ECC2
:07098B0033FC5002B2D5223B
:10099200EC30E7100FBF000C0EBE00080DBD0004C6
:1009A2000BEB6014A2D5EB13FCED92E7FD2274FF72
:1009B200FCFDFEFF22E480F8A2D574FF13FC7D80CB
:0309C200E480EFDF
:100CA900020D29E493A3F8E493A34003F68001F22B
:100CB90008DFF48029E493A3F85407240CC8C3334C
:100CC900C4540F4420C8834004F456800146F6DF1B
:100CD900E4800B0102040810204080900F00E47E9C
:100CE900019360BCA3FF543F30E509541FFEE49310
:100CF900A360010ECF54C025E060A840B8E493A3D7
:100D0900FAE493A3F8E493A3C8C582C8CAC583CA01
:100D1900F0A3C8C582C8CAC583CADFE9DEE780BEB9
:010F310000BF
:0E09C500C3E49FFFE49EFEE49DFDE49CFC2243
:00000001FF
